{
  "contractName": "ExerciceSolution",
  "abi": [
    {
      "inputs": [
        {
          "internalType": "address",
          "name": "_wethAddress",
          "type": "address"
        },
        {
          "internalType": "address",
          "name": "_dummyAddress",
          "type": "address"
        },
        {
          "internalType": "address",
          "name": "_myTokenAddress",
          "type": "address"
        },
        {
          "internalType": "contract IUniswapV2Router02",
          "name": "_uniswapV2Router02Address",
          "type": "address"
        }
      ],
      "stateMutability": "nonpayable",
      "type": "constructor"
    },
    {
      "inputs": [],
      "name": "dummyAddress",
      "outputs": [
        {
          "internalType": "address",
          "name": "",
          "type": "address"
        }
      ],
      "stateMutability": "view",
      "type": "function"
    },
    {
      "inputs": [],
      "name": "myTokenAddress",
      "outputs": [
        {
          "internalType": "address",
          "name": "",
          "type": "address"
        }
      ],
      "stateMutability": "view",
      "type": "function"
    },
    {
      "inputs": [],
      "name": "owner",
      "outputs": [
        {
          "internalType": "address",
          "name": "",
          "type": "address"
        }
      ],
      "stateMutability": "view",
      "type": "function"
    },
    {
      "inputs": [],
      "name": "wethAddress",
      "outputs": [
        {
          "internalType": "address",
          "name": "",
          "type": "address"
        }
      ],
      "stateMutability": "view",
      "type": "function"
    },
    {
      "inputs": [],
      "name": "swapYourTokenForEth",
      "outputs": [],
      "stateMutability": "nonpayable",
      "type": "function"
    },
    {
      "inputs": [],
      "name": "swapYourTokenForDummyToken",
      "outputs": [],
      "stateMutability": "nonpayable",
      "type": "function"
    },
    {
      "inputs": [],
      "name": "addLiquidity",
      "outputs": [],
      "stateMutability": "nonpayable",
      "type": "function"
    },
    {
      "inputs": [
        {
          "internalType": "address",
          "name": "_tokenIn",
          "type": "address"
        },
        {
          "internalType": "address",
          "name": "_tokenOut",
          "type": "address"
        },
        {
          "internalType": "uint256",
          "name": "_amountIn",
          "type": "uint256"
        }
      ],
      "name": "getAmountOutMin",
      "outputs": [
        {
          "internalType": "uint256",
          "name": "",
          "type": "uint256"
        }
      ],
      "stateMutability": "nonpayable",
      "type": "function"
    }
  ],
  "bytecode": "0x608060405234801561001057600080fd5b5060405161196a38038061196a8339818101604052608081101561003357600080fd5b8101908080519060200190929190805190602001909291908051906020019092919080519060200190929190505050336000806101000a81548173ffffffffffffffffffffffffffffffffffffffff021916908373ffffffffffffffffffffffffffffffffffffffff16021790555083600160006101000a81548173ffffffffffffffffffffffffffffffffffffffff021916908373ffffffffffffffffffffffffffffffffffffffff16021790555082600260006101000a81548173ffffffffffffffffffffffffffffffffffffffff021916908373ffffffffffffffffffffffffffffffffffffffff16021790555081600360006101000a81548173ffffffffffffffffffffffffffffffffffffffff021916908373ffffffffffffffffffffffffffffffffffffffff16021790555080600460006101000a81548173ffffffffffffffffffffffffffffffffffffffff021916908373ffffffffffffffffffffffffffffffffffffffff160217905550505050506117b1806101b96000396000f3fe608060405234801561001057600080fd5b50600436106100885760003560e01c80638da5cb5b1161005b5780638da5cb5b146101ad578063c4a85993146101f7578063e6f822ab14610201578063e8078d941461024b57610088565b806305b383121461008d5780633c50eec1146100d75780634f0e0ef3146101595780637c587b22146101a3575b600080fd5b610095610255565b604051808273ffffffffffffffffffffffffffffffffffffffff1673ffffffffffffffffffffffffffffffffffffffff16815260200191505060405180910390f35b610143600480360360608110156100ed57600080fd5b81019080803573ffffffffffffffffffffffffffffffffffffffff169060200190929190803573ffffffffffffffffffffffffffffffffffffffff1690602001909291908035906020019092919050505061027b565b6040518082815260200191505060405180910390f35b6101616106dd565b604051808273ffffffffffffffffffffffffffffffffffffffff1673ffffffffffffffffffffffffffffffffffffffff16815260200191505060405180910390f35b6101ab610703565b005b6101b5610d1b565b604051808273ffffffffffffffffffffffffffffffffffffffff1673ffffffffffffffffffffffffffffffffffffffff16815260200191505060405180910390f35b6101ff610d40565b005b6102096112ee565b604051808273ffffffffffffffffffffffffffffffffffffffff1673ffffffffffffffffffffffffffffffffffffffff16815260200191505060405180910390f35b610253611314565b005b600260009054906101000a900473ffffffffffffffffffffffffffffffffffffffff1681565b60006060600160009054906101000a900473ffffffffffffffffffffffffffffffffffffffff1673ffffffffffffffffffffffffffffffffffffffff168573ffffffffffffffffffffffffffffffffffffffff1614806103285750600160009054906101000a900473ffffffffffffffffffffffffffffffffffffffff1673ffffffffffffffffffffffffffffffffffffffff168473ffffffffffffffffffffffffffffffffffffffff16145b156103f557600260405190808252806020026020018201604052801561035d5781602001602082028038833980820191505090505b509050848160008151811061036e57fe5b602002602001019073ffffffffffffffffffffffffffffffffffffffff16908173ffffffffffffffffffffffffffffffffffffffff168152505083816001815181106103b657fe5b602002602001019073ffffffffffffffffffffffffffffffffffffffff16908173ffffffffffffffffffffffffffffffffffffffff1681525050610523565b60036040519080825280602002602001820160405280156104255781602001602082028038833980820191505090505b509050848160008151811061043657fe5b602002602001019073ffffffffffffffffffffffffffffffffffffffff16908173ffffffffffffffffffffffffffffffffffffffff1681525050600160009054906101000a900473ffffffffffffffffffffffffffffffffffffffff16816001815181106104a057fe5b602002602001019073ffffffffffffffffffffffffffffffffffffffff16908173ffffffffffffffffffffffffffffffffffffffff168152505083816002815181106104e857fe5b602002602001019073ffffffffffffffffffffffffffffffffffffffff16908173ffffffffffffffffffffffffffffffffffffffff16815250505b6060600460009054906101000a900473ffffffffffffffffffffffffffffffffffffffff1673ffffffffffffffffffffffffffffffffffffffff1663d06ca61f85846040518363ffffffff1660e01b81526004018083815260200180602001828103825283818151815260200191508051906020019060200280838360005b838110156105bd5780820151818401526020810190506105a2565b505050509050019350505050600060405180830381600087803b1580156105e357600080fd5b505af11580156105f7573d6000803e3d6000fd5b505050506040513d6000823e3d601f19601f82011682018060405250602081101561062157600080fd5b810190808051604051939291908464010000000082111561064157600080fd5b8382019150602082018581111561065757600080fd5b825186602082028301116401000000008211171561067457600080fd5b8083526020830192505050908051906020019060200280838360005b838110156106ab578082015181840152602081019050610690565b505050509050016040525050509050806001835103815181106106ca57fe5b6020026020010151925050509392505050565b600160009054906101000a900473ffffffffffffffffffffffffffffffffffffffff1681565b6000600360009054906101000a900473ffffffffffffffffffffffffffffffffffffffff1673ffffffffffffffffffffffffffffffffffffffff166370a08231306040518263ffffffff1660e01b8152600401808273ffffffffffffffffffffffffffffffffffffffff1673ffffffffffffffffffffffffffffffffffffffff16815260200191505060206040518083038186803b1580156107a457600080fd5b505afa1580156107b8573d6000803e3d6000fd5b505050506040513d60208110156107ce57600080fd5b8101908080519060200190929190505050905060008111610857576040517f08c379a000000000000000000000000000000000000000000000000000000000815260040180806020018281038252601f8152602001807f4e6f20746f6b656e20746f207377617020666f722064756d6d79546f6b656e0081525060200191505060405180910390fd5b60006002828161086357fe5b04905060006108b7600360009054906101000a900473ffffffffffffffffffffffffffffffffffffffff16600160009054906101000a900473ffffffffffffffffffffffffffffffffffffffff168461027b565b9050600061012c42019050606060036040519080825280602002602001820160405280156108f45781602001602082028038833980820191505090505b509050600360009054906101000a900473ffffffffffffffffffffffffffffffffffffffff168160008151811061092757fe5b602002602001019073ffffffffffffffffffffffffffffffffffffffff16908173ffffffffffffffffffffffffffffffffffffffff1681525050600160009054906101000a900473ffffffffffffffffffffffffffffffffffffffff168160018151811061099157fe5b602002602001019073ffffffffffffffffffffffffffffffffffffffff16908173ffffffffffffffffffffffffffffffffffffffff1681525050600260009054906101000a900473ffffffffffffffffffffffffffffffffffffffff16816002815181106109fb57fe5b602002602001019073ffffffffffffffffffffffffffffffffffffffff16908173ffffffffffffffffffffffffffffffffffffffff1681525050600360009054906101000a900473ffffffffffffffffffffffffffffffffffffffff1673ffffffffffffffffffffffffffffffffffffffff1663095ea7b3600460009054906101000a900473ffffffffffffffffffffffffffffffffffffffff16866040518363ffffffff1660e01b8152600401808373ffffffffffffffffffffffffffffffffffffffff1673ffffffffffffffffffffffffffffffffffffffff16815260200182815260200192505050602060405180830381600087803b158015610b0057600080fd5b505af1158015610b14573d6000803e3d6000fd5b505050506040513d6020811015610b2a57600080fd5b810190808051906020019092919050505050600460009054906101000a900473ffffffffffffffffffffffffffffffffffffffff1673ffffffffffffffffffffffffffffffffffffffff166338ed173985858433876040518663ffffffff1660e01b815260040180868152602001858152602001806020018473ffffffffffffffffffffffffffffffffffffffff1673ffffffffffffffffffffffffffffffffffffffff168152602001838152602001828103825285818151815260200191508051906020019060200280838360005b83811015610c15578082015181840152602081019050610bfa565b505050509050019650505050505050600060405180830381600087803b158015610c3e57600080fd5b505af1158015610c52573d6000803e3d6000fd5b505050506040513d6000823e3d601f19601f820116820180604052506020811015610c7c57600080fd5b8101908080516040519392919084640100000000821115610c9c57600080fd5b83820191506020820185811115610cb257600080fd5b8251866020820283011164010000000082111715610ccf57600080fd5b8083526020830192505050908051906020019060200280838360005b83811015610d06578082015181840152602081019050610ceb565b50505050905001604052505050505050505050565b6000809054906101000a900473ffffffffffffffffffffffffffffffffffffffff1681565b6000600360009054906101000a900473ffffffffffffffffffffffffffffffffffffffff1673ffffffffffffffffffffffffffffffffffffffff166370a08231306040518263ffffffff1660e01b8152600401808273ffffffffffffffffffffffffffffffffffffffff1673ffffffffffffffffffffffffffffffffffffffff16815260200191505060206040518083038186803b158015610de157600080fd5b505afa158015610df5573d6000803e3d6000fd5b505050506040513d6020811015610e0b57600080fd5b8101908080519060200190929190505050905060008111610e94576040517f08c379a000000000000000000000000000000000000000000000000000000000815260040180806020018281038252601a8152602001807f4e6f20746f6b656e20746f207377617020666f7220657468657200000000000081525060200191505060405180910390fd5b600060028281610ea057fe5b0490506000610ef4600360009054906101000a900473ffffffffffffffffffffffffffffffffffffffff16600160009054906101000a900473ffffffffffffffffffffffffffffffffffffffff168461027b565b9050600061012c4201905060606002604051908082528060200260200182016040528015610f315781602001602082028038833980820191505090505b509050600360009054906101000a900473ffffffffffffffffffffffffffffffffffffffff1681600081518110610f6457fe5b602002602001019073ffffffffffffffffffffffffffffffffffffffff16908173ffffffffffffffffffffffffffffffffffffffff1681525050600160009054906101000a900473ffffffffffffffffffffffffffffffffffffffff1681600181518110610fce57fe5b602002602001019073ffffffffffffffffffffffffffffffffffffffff16908173ffffffffffffffffffffffffffffffffffffffff1681525050600360009054906101000a900473ffffffffffffffffffffffffffffffffffffffff1673ffffffffffffffffffffffffffffffffffffffff1663095ea7b3600460009054906101000a900473ffffffffffffffffffffffffffffffffffffffff16866040518363ffffffff1660e01b8152600401808373ffffffffffffffffffffffffffffffffffffffff1673ffffffffffffffffffffffffffffffffffffffff16815260200182815260200192505050602060405180830381600087803b1580156110d357600080fd5b505af11580156110e7573d6000803e3d6000fd5b505050506040513d60208110156110fd57600080fd5b810190808051906020019092919050505050600460009054906101000a900473ffffffffffffffffffffffffffffffffffffffff1673ffffffffffffffffffffffffffffffffffffffff166318cbafe585858433876040518663ffffffff1660e01b815260040180868152602001858152602001806020018473ffffffffffffffffffffffffffffffffffffffff1673ffffffffffffffffffffffffffffffffffffffff168152602001838152602001828103825285818151815260200191508051906020019060200280838360005b838110156111e85780820151818401526020810190506111cd565b505050509050019650505050505050600060405180830381600087803b15801561121157600080fd5b505af1158015611225573d6000803e3d6000fd5b505050506040513d6000823e3d601f19601f82011682018060405250602081101561124f57600080fd5b810190808051604051939291908464010000000082111561126f57600080fd5b8382019150602082018581111561128557600080fd5b82518660208202830111640100000000821117156112a257600080fd5b8083526020830192505050908051906020019060200280838360005b838110156112d95780820151818401526020810190506112be565b50505050905001604052505050505050505050565b600360009054906101000a900473ffffffffffffffffffffffffffffffffffffffff1681565b6000600360009054906101000a900473ffffffffffffffffffffffffffffffffffffffff1673ffffffffffffffffffffffffffffffffffffffff166370a08231306040518263ffffffff1660e01b8152600401808273ffffffffffffffffffffffffffffffffffffffff1673ffffffffffffffffffffffffffffffffffffffff16815260200191505060206040518083038186803b1580156113b557600080fd5b505afa1580156113c9573d6000803e3d6000fd5b505050506040513d60208110156113df57600080fd5b8101908080519060200190929190505050905060008111611468576040517f08c379a000000000000000000000000000000000000000000000000000000000815260040180806020018281038252601f8152602001807f4e6f20746f6b656e20746f207377617020666f722064756d6d79546f6b656e0081525060200191505060405180910390fd5b600047116114de576040517f08c379a00000000000000000000000000000000000000000000000000000000081526004018080602001828103825260108152602001807f4e6f7420656e6f7567682045746865720000000000000000000000000000000081525060200191505060405180910390fd5b6000600282816114ea57fe5b049050600060019050600060019050600061012c42019050600360009054906101000a900473ffffffffffffffffffffffffffffffffffffffff1673ffffffffffffffffffffffffffffffffffffffff1663095ea7b3600460009054906101000a900473ffffffffffffffffffffffffffffffffffffffff16866040518363ffffffff1660e01b8152600401808373ffffffffffffffffffffffffffffffffffffffff1673ffffffffffffffffffffffffffffffffffffffff16815260200182815260200192505050602060405180830381600087803b1580156115cd57600080fd5b505af11580156115e1573d6000803e3d6000fd5b505050506040513d60208110156115f757600080fd5b810190808051906020019092919050505050600460009054906101000a900473ffffffffffffffffffffffffffffffffffffffff1673ffffffffffffffffffffffffffffffffffffffff1663f305d7196064600360009054906101000a900473ffffffffffffffffffffffffffffffffffffffff1687878733886040518863ffffffff1660e01b8152600401808773ffffffffffffffffffffffffffffffffffffffff1673ffffffffffffffffffffffffffffffffffffffff1681526020018681526020018581526020018481526020018373ffffffffffffffffffffffffffffffffffffffff1673ffffffffffffffffffffffffffffffffffffffff16815260200182815260200196505050505050506060604051808303818588803b15801561172157600080fd5b505af1158015611735573d6000803e3d6000fd5b50505050506040513d606081101561174c57600080fd5b81019080805190602001909291908051906020019092919080519060200190929190505050505050505050505056fea264697066735822122067e010beaae383098ef4dfd2139f9a8279a09d5ebfb464bdef2d28fd3fb35ed864736f6c63430006020033",
  "source": "pragma solidity >=0.6.0;\r\n\r\nimport \"@openzeppelin/contracts/token/ERC20/IERC20.sol\";\r\nimport \"./utils/IUniswapV2Router02.sol\";\r\n\r\ncontract ExerciceSolution {\r\n\r\n    address public owner;\r\n    address public wethAddress;\r\n    address public dummyAddress;\r\n    address public myTokenAddress;\r\n    IUniswapV2Router02 uniswapV2Router02;\r\n    \r\n    constructor(address _wethAddress, address _dummyAddress, address _myTokenAddress, IUniswapV2Router02 _uniswapV2Router02Address) public {\r\n        owner = msg.sender;\r\n        wethAddress = _wethAddress;\r\n        dummyAddress = _dummyAddress;\r\n        myTokenAddress = _myTokenAddress;\r\n        uniswapV2Router02 = IUniswapV2Router02(_uniswapV2Router02Address);\r\n\t}\r\n\r\n    function swapYourTokenForEth() public {\r\n        uint myTokenAmount = IERC20(myTokenAddress).balanceOf(address(this));\r\n        require(myTokenAmount > 0, \"No token to swap for ether\");\r\n\r\n        uint amountIn = myTokenAmount / 2;\r\n        // uint amountOutMin = 1; // I guess you should never do that\r\n        uint amountOutMin = getAmountOutMin(myTokenAddress, wethAddress, amountIn);\r\n        uint deadline = block.timestamp + 300;\r\n        address[] memory path = new address[](2);\r\n        path[0] = myTokenAddress;\r\n        path[1] = wethAddress;\r\n        \r\n        IERC20(myTokenAddress).approve(address(uniswapV2Router02), amountIn);\r\n\r\n        uniswapV2Router02.swapExactTokensForETH(amountIn, amountOutMin, path, msg.sender, deadline);\r\n    }\r\n\r\n    function swapYourTokenForDummyToken() public {\r\n        uint myTokenAmount = IERC20(myTokenAddress).balanceOf(address(this));\r\n        require(myTokenAmount > 0, \"No token to swap for dummyToken\");\r\n\r\n        uint amountIn = myTokenAmount / 2;\r\n        // uint amountOutMin = 1; // I guess you should never do that\r\n        uint amountOutMin = getAmountOutMin(myTokenAddress, wethAddress, amountIn);\r\n        uint deadline = block.timestamp + 300;\r\n        address[] memory path = new address[](3);\r\n        path[0] = myTokenAddress;\r\n        path[1] = wethAddress;\r\n        path[2] = dummyAddress;\r\n        \r\n        IERC20(myTokenAddress).approve(address(uniswapV2Router02), amountIn);\r\n\r\n        uniswapV2Router02.swapExactTokensForTokens(amountIn, amountOutMin, path, msg.sender, deadline);\r\n    }\r\n\r\n    function addLiquidity() public {\r\n        uint myTokenAmount = IERC20(myTokenAddress).balanceOf(address(this));\r\n        require(myTokenAmount > 0, \"No token to swap for dummyToken\");\r\n        require(address(this).balance > 0, \"Not enough Ether\");\r\n\r\n        uint amountTokenDesired = myTokenAmount / 2;\r\n        uint amountTokenMin = 1;\r\n        uint amountETHMin = 1;\r\n        uint deadline = block.timestamp + 300;\r\n\r\n        IERC20(myTokenAddress).approve(address(uniswapV2Router02), amountTokenDesired);\r\n\r\n        uniswapV2Router02.addLiquidityETH{ value: 100 }(myTokenAddress, amountTokenDesired, amountTokenMin, amountETHMin, msg.sender, deadline);\r\n    }\r\n\r\n\r\n\r\n    function getAmountOutMin(address _tokenIn, address _tokenOut, uint256 _amountIn) public returns (uint256) {\r\n\r\n       //path is an array of addresses.\r\n       //this path array will have 3 addresses [tokenIn, WETH, tokenOut]\r\n       //the if statement below takes into account if token in or token out is WETH.  then the path is only 2 addresses\r\n        address[] memory path;\r\n        if (_tokenIn == wethAddress || _tokenOut == wethAddress) {\r\n            path = new address[](2);\r\n            path[0] = _tokenIn;\r\n            path[1] = _tokenOut;\r\n        } else {\r\n            path = new address[](3);\r\n            path[0] = _tokenIn;\r\n            path[1] = wethAddress;\r\n            path[2] = _tokenOut;\r\n        }\r\n        \r\n        uint256[] memory amountOutMins = uniswapV2Router02.getAmountsOut(_amountIn, path);\r\n        return amountOutMins[path.length -1];  \r\n    }\r\n\t\r\n}",
  "sourcePath": "C:\\Users\\laith\\Downloads\\amm-101\\contracts\\ExerciceSolution.sol",
  "compiler": {
    "name": "solc",
    "version": "0.6.2+commit.bacdbe57.Emscripten.clang"
  },
  "schemaVersion": "3.4.3",
  "updatedAt": "2021-12-05T17:26:32.899Z",
  "devdoc": {
    "methods": {}
  },
  "userdoc": {
    "methods": {}
  }
}