{
  "contractName": "ExerciceSolution",
  "abi": [
    {
      "inputs": [
        {
          "internalType": "address",
          "name": "_wethAddress",
          "type": "address"
        },
        {
          "internalType": "address",
          "name": "_dummyAddress",
          "type": "address"
        },
        {
          "internalType": "address",
          "name": "_myTokenAddress",
          "type": "address"
        },
        {
          "internalType": "contract IUniswapV2Router02",
          "name": "_uniswapV2Router02Address",
          "type": "address"
        }
      ],
      "stateMutability": "nonpayable",
      "type": "constructor"
    },
    {
      "inputs": [],
      "name": "dummyAddress",
      "outputs": [
        {
          "internalType": "address",
          "name": "",
          "type": "address"
        }
      ],
      "stateMutability": "view",
      "type": "function"
    },
    {
      "inputs": [],
      "name": "myTokenAddress",
      "outputs": [
        {
          "internalType": "address",
          "name": "",
          "type": "address"
        }
      ],
      "stateMutability": "view",
      "type": "function"
    },
    {
      "inputs": [],
      "name": "owner",
      "outputs": [
        {
          "internalType": "address",
          "name": "",
          "type": "address"
        }
      ],
      "stateMutability": "view",
      "type": "function"
    },
    {
      "inputs": [],
      "name": "wethAddress",
      "outputs": [
        {
          "internalType": "address",
          "name": "",
          "type": "address"
        }
      ],
      "stateMutability": "view",
      "type": "function"
    },
    {
      "inputs": [],
      "name": "swapYourTokenForEth",
      "outputs": [],
      "stateMutability": "nonpayable",
      "type": "function"
    },
    {
      "inputs": [],
      "name": "swapYourTokenForDummyToken",
      "outputs": [],
      "stateMutability": "nonpayable",
      "type": "function"
    }
  ],
  "bytecode": "0x608060405234801561001057600080fd5b50604051610eeb380380610eeb8339818101604052608081101561003357600080fd5b8101908080519060200190929190805190602001909291908051906020019092919080519060200190929190505050336000806101000a81548173ffffffffffffffffffffffffffffffffffffffff021916908373ffffffffffffffffffffffffffffffffffffffff16021790555083600160006101000a81548173ffffffffffffffffffffffffffffffffffffffff021916908373ffffffffffffffffffffffffffffffffffffffff16021790555082600260006101000a81548173ffffffffffffffffffffffffffffffffffffffff021916908373ffffffffffffffffffffffffffffffffffffffff16021790555081600360006101000a81548173ffffffffffffffffffffffffffffffffffffffff021916908373ffffffffffffffffffffffffffffffffffffffff16021790555080600460006101000a81548173ffffffffffffffffffffffffffffffffffffffff021916908373ffffffffffffffffffffffffffffffffffffffff16021790555050505050610d32806101b96000396000f3fe608060405234801561001057600080fd5b50600436106100625760003560e01c806305b38312146100675780634f0e0ef3146100b15780637c587b22146100fb5780638da5cb5b14610105578063c4a859931461014f578063e6f822ab14610159575b600080fd5b61006f6101a3565b604051808273ffffffffffffffffffffffffffffffffffffffff1673ffffffffffffffffffffffffffffffffffffffff16815260200191505060405180910390f35b6100b96101c9565b604051808273ffffffffffffffffffffffffffffffffffffffff1673ffffffffffffffffffffffffffffffffffffffff16815260200191505060405180910390f35b6101036101ef565b005b61010d610750565b604051808273ffffffffffffffffffffffffffffffffffffffff1673ffffffffffffffffffffffffffffffffffffffff16815260200191505060405180910390f35b610157610775565b005b610161610cd6565b604051808273ffffffffffffffffffffffffffffffffffffffff1673ffffffffffffffffffffffffffffffffffffffff16815260200191505060405180910390f35b600260009054906101000a900473ffffffffffffffffffffffffffffffffffffffff1681565b600160009054906101000a900473ffffffffffffffffffffffffffffffffffffffff1681565b6000600360009054906101000a900473ffffffffffffffffffffffffffffffffffffffff1673ffffffffffffffffffffffffffffffffffffffff166370a08231306040518263ffffffff1660e01b8152600401808273ffffffffffffffffffffffffffffffffffffffff1673ffffffffffffffffffffffffffffffffffffffff16815260200191505060206040518083038186803b15801561029057600080fd5b505afa1580156102a4573d6000803e3d6000fd5b505050506040513d60208110156102ba57600080fd5b8101908080519060200190929190505050905060008111610343576040517f08c379a000000000000000000000000000000000000000000000000000000000815260040180806020018281038252601f8152602001807f4e6f20746f6b656e20746f207377617020666f722064756d6d79546f6b656e0081525060200191505060405180910390fd5b60006002828161034f57fe5b049050600060019050600061012c42019050606060026040519080825280602002602001820160405280156103935781602001602082028038833980820191505090505b509050600360009054906101000a900473ffffffffffffffffffffffffffffffffffffffff16816000815181106103c657fe5b602002602001019073ffffffffffffffffffffffffffffffffffffffff16908173ffffffffffffffffffffffffffffffffffffffff1681525050600260009054906101000a900473ffffffffffffffffffffffffffffffffffffffff168160018151811061043057fe5b602002602001019073ffffffffffffffffffffffffffffffffffffffff16908173ffffffffffffffffffffffffffffffffffffffff1681525050600360009054906101000a900473ffffffffffffffffffffffffffffffffffffffff1673ffffffffffffffffffffffffffffffffffffffff1663095ea7b3600460009054906101000a900473ffffffffffffffffffffffffffffffffffffffff16866040518363ffffffff1660e01b8152600401808373ffffffffffffffffffffffffffffffffffffffff1673ffffffffffffffffffffffffffffffffffffffff16815260200182815260200192505050602060405180830381600087803b15801561053557600080fd5b505af1158015610549573d6000803e3d6000fd5b505050506040513d602081101561055f57600080fd5b810190808051906020019092919050505050600460009054906101000a900473ffffffffffffffffffffffffffffffffffffffff1673ffffffffffffffffffffffffffffffffffffffff166338ed173985858433876040518663ffffffff1660e01b815260040180868152602001858152602001806020018473ffffffffffffffffffffffffffffffffffffffff1673ffffffffffffffffffffffffffffffffffffffff168152602001838152602001828103825285818151815260200191508051906020019060200280838360005b8381101561064a57808201518184015260208101905061062f565b505050509050019650505050505050600060405180830381600087803b15801561067357600080fd5b505af1158015610687573d6000803e3d6000fd5b505050506040513d6000823e3d601f19601f8201168201806040525060208110156106b157600080fd5b81019080805160405193929190846401000000008211156106d157600080fd5b838201915060208201858111156106e757600080fd5b825186602082028301116401000000008211171561070457600080fd5b8083526020830192505050908051906020019060200280838360005b8381101561073b578082015181840152602081019050610720565b50505050905001604052505050505050505050565b6000809054906101000a900473ffffffffffffffffffffffffffffffffffffffff1681565b6000600360009054906101000a900473ffffffffffffffffffffffffffffffffffffffff1673ffffffffffffffffffffffffffffffffffffffff166370a08231306040518263ffffffff1660e01b8152600401808273ffffffffffffffffffffffffffffffffffffffff1673ffffffffffffffffffffffffffffffffffffffff16815260200191505060206040518083038186803b15801561081657600080fd5b505afa15801561082a573d6000803e3d6000fd5b505050506040513d602081101561084057600080fd5b81019080805190602001909291905050509050600081116108c9576040517f08c379a000000000000000000000000000000000000000000000000000000000815260040180806020018281038252601a8152602001807f4e6f20746f6b656e20746f207377617020666f7220657468657200000000000081525060200191505060405180910390fd5b6000600582816108d557fe5b049050600060019050600061012c42019050606060026040519080825280602002602001820160405280156109195781602001602082028038833980820191505090505b509050600360009054906101000a900473ffffffffffffffffffffffffffffffffffffffff168160008151811061094c57fe5b602002602001019073ffffffffffffffffffffffffffffffffffffffff16908173ffffffffffffffffffffffffffffffffffffffff1681525050600160009054906101000a900473ffffffffffffffffffffffffffffffffffffffff16816001815181106109b657fe5b602002602001019073ffffffffffffffffffffffffffffffffffffffff16908173ffffffffffffffffffffffffffffffffffffffff1681525050600360009054906101000a900473ffffffffffffffffffffffffffffffffffffffff1673ffffffffffffffffffffffffffffffffffffffff1663095ea7b3600460009054906101000a900473ffffffffffffffffffffffffffffffffffffffff16866040518363ffffffff1660e01b8152600401808373ffffffffffffffffffffffffffffffffffffffff1673ffffffffffffffffffffffffffffffffffffffff16815260200182815260200192505050602060405180830381600087803b158015610abb57600080fd5b505af1158015610acf573d6000803e3d6000fd5b505050506040513d6020811015610ae557600080fd5b810190808051906020019092919050505050600460009054906101000a900473ffffffffffffffffffffffffffffffffffffffff1673ffffffffffffffffffffffffffffffffffffffff166318cbafe585858433876040518663ffffffff1660e01b815260040180868152602001858152602001806020018473ffffffffffffffffffffffffffffffffffffffff1673ffffffffffffffffffffffffffffffffffffffff168152602001838152602001828103825285818151815260200191508051906020019060200280838360005b83811015610bd0578082015181840152602081019050610bb5565b505050509050019650505050505050600060405180830381600087803b158015610bf957600080fd5b505af1158015610c0d573d6000803e3d6000fd5b505050506040513d6000823e3d601f19601f820116820180604052506020811015610c3757600080fd5b8101908080516040519392919084640100000000821115610c5757600080fd5b83820191506020820185811115610c6d57600080fd5b8251866020820283011164010000000082111715610c8a57600080fd5b8083526020830192505050908051906020019060200280838360005b83811015610cc1578082015181840152602081019050610ca6565b50505050905001604052505050505050505050565b600360009054906101000a900473ffffffffffffffffffffffffffffffffffffffff168156fea26469706673582212202259c11099755be28d6fef061142e7e84dd1e60502bea557e56905bb58fa815664736f6c63430006020033",
  "source": "pragma solidity >=0.6.0;\r\n\r\nimport \"@openzeppelin/contracts/token/ERC20/IERC20.sol\";\r\nimport \"./utils/IUniswapV2Router02.sol\";\r\n\r\ncontract ExerciceSolution {\r\n\r\n    address public owner;\r\n    address public wethAddress;\r\n    address public dummyAddress;\r\n    address public myTokenAddress;\r\n    IUniswapV2Router02 uniswapV2Router02;\r\n    \r\n    constructor(address _wethAddress, address _dummyAddress, address _myTokenAddress, IUniswapV2Router02 _uniswapV2Router02Address) public {\r\n        owner = msg.sender;\r\n        wethAddress = _wethAddress;\r\n        dummyAddress = _dummyAddress;\r\n        myTokenAddress = _myTokenAddress;\r\n        uniswapV2Router02 = IUniswapV2Router02(_uniswapV2Router02Address);\r\n\t}\r\n\r\n    function swapYourTokenForEth() public {\r\n        uint myTokenAmount = IERC20(myTokenAddress).balanceOf(address(this));\r\n        require(myTokenAmount > 0, \"No token to swap for ether\");\r\n\r\n        uint amountIn = myTokenAmount / 5;\r\n        uint amountOutMin = 1; // I guess you should never do that\r\n        uint deadline = block.timestamp + 300;\r\n        address[] memory path = new address[](2);\r\n        path[0] = myTokenAddress;\r\n        path[1] = wethAddress;\r\n        \r\n        IERC20(myTokenAddress).approve(address(uniswapV2Router02), amountIn);\r\n\r\n        uniswapV2Router02.swapExactTokensForETH(amountIn, amountOutMin, path, msg.sender, deadline);\r\n    }\r\n\r\n    function swapYourTokenForDummyToken() public {\r\n        uint myTokenAmount = IERC20(myTokenAddress).balanceOf(address(this));\r\n        require(myTokenAmount > 0, \"No token to swap for dummyToken\");\r\n\r\n        uint amountIn = myTokenAmount / 2;\r\n        uint amountOutMin = 1; // I guess you should never do that\r\n        uint deadline = block.timestamp + 300;\r\n        address[] memory path = new address[](2);\r\n        path[0] = myTokenAddress;\r\n        path[1] = dummyAddress;\r\n        \r\n        IERC20(myTokenAddress).approve(address(uniswapV2Router02), amountIn);\r\n\r\n        uniswapV2Router02.swapExactTokensForTokens(amountIn, amountOutMin, path, msg.sender, deadline);\r\n    }\r\n\t\r\n}",
  "sourcePath": "C:\\Users\\laith\\Downloads\\amm-101\\contracts\\ExerciceSolution.sol",
  "compiler": {
    "name": "solc",
    "version": "0.6.2+commit.bacdbe57.Emscripten.clang"
  },
  "schemaVersion": "3.4.3",
  "updatedAt": "2021-12-05T15:12:44.426Z",
  "devdoc": {
    "methods": {}
  },
  "userdoc": {
    "methods": {}
  }
}