{
  "contractName": "ExerciceSolution",
  "abi": [
    {
      "inputs": [
        {
          "internalType": "address",
          "name": "_wethAddress",
          "type": "address"
        },
        {
          "internalType": "address",
          "name": "_dummyAddress",
          "type": "address"
        },
        {
          "internalType": "address",
          "name": "_myTokenAddress",
          "type": "address"
        },
        {
          "internalType": "contract IUniswapV2Router02",
          "name": "_uniswapV2Router02Address",
          "type": "address"
        },
        {
          "internalType": "contract IUniswapV2Factory",
          "name": "_uniswapV2Factory",
          "type": "address"
        }
      ],
      "stateMutability": "nonpayable",
      "type": "constructor"
    },
    {
      "stateMutability": "payable",
      "type": "fallback"
    },
    {
      "inputs": [],
      "name": "dummyAddress",
      "outputs": [
        {
          "internalType": "address",
          "name": "",
          "type": "address"
        }
      ],
      "stateMutability": "view",
      "type": "function"
    },
    {
      "inputs": [],
      "name": "liquidity",
      "outputs": [
        {
          "internalType": "uint256",
          "name": "",
          "type": "uint256"
        }
      ],
      "stateMutability": "view",
      "type": "function"
    },
    {
      "inputs": [],
      "name": "myTokenAddress",
      "outputs": [
        {
          "internalType": "address",
          "name": "",
          "type": "address"
        }
      ],
      "stateMutability": "view",
      "type": "function"
    },
    {
      "inputs": [],
      "name": "owner",
      "outputs": [
        {
          "internalType": "address",
          "name": "",
          "type": "address"
        }
      ],
      "stateMutability": "view",
      "type": "function"
    },
    {
      "inputs": [],
      "name": "uniswapV2Factory",
      "outputs": [
        {
          "internalType": "contract IUniswapV2Factory",
          "name": "",
          "type": "address"
        }
      ],
      "stateMutability": "view",
      "type": "function"
    },
    {
      "inputs": [],
      "name": "uniswapV2Router02",
      "outputs": [
        {
          "internalType": "contract IUniswapV2Router02",
          "name": "",
          "type": "address"
        }
      ],
      "stateMutability": "view",
      "type": "function"
    },
    {
      "inputs": [],
      "name": "wethAddress",
      "outputs": [
        {
          "internalType": "address",
          "name": "",
          "type": "address"
        }
      ],
      "stateMutability": "view",
      "type": "function"
    },
    {
      "stateMutability": "payable",
      "type": "receive"
    },
    {
      "inputs": [],
      "name": "swapYourTokenForEth",
      "outputs": [],
      "stateMutability": "nonpayable",
      "type": "function"
    },
    {
      "inputs": [],
      "name": "swapYourTokenForDummyToken",
      "outputs": [],
      "stateMutability": "nonpayable",
      "type": "function"
    },
    {
      "inputs": [],
      "name": "addLiquidity",
      "outputs": [],
      "stateMutability": "nonpayable",
      "type": "function"
    },
    {
      "inputs": [],
      "name": "withdrawLiquidity",
      "outputs": [],
      "stateMutability": "nonpayable",
      "type": "function"
    },
    {
      "inputs": [
        {
          "internalType": "address",
          "name": "_tokenIn",
          "type": "address"
        },
        {
          "internalType": "address",
          "name": "_tokenOut",
          "type": "address"
        },
        {
          "internalType": "uint256",
          "name": "_amountIn",
          "type": "uint256"
        }
      ],
      "name": "getAmountOutMin",
      "outputs": [
        {
          "internalType": "uint256",
          "name": "",
          "type": "uint256"
        }
      ],
      "stateMutability": "nonpayable",
      "type": "function"
    }
  ],
  "bytecode": "0x608060405234801561001057600080fd5b50604051611f97380380611f97833981810160405260a081101561003357600080fd5b810190808051906020019092919080519060200190929190805190602001909291908051906020019092919080519060200190929190505050336000806101000a81548173ffffffffffffffffffffffffffffffffffffffff021916908373ffffffffffffffffffffffffffffffffffffffff16021790555084600160006101000a81548173ffffffffffffffffffffffffffffffffffffffff021916908373ffffffffffffffffffffffffffffffffffffffff16021790555083600260006101000a81548173ffffffffffffffffffffffffffffffffffffffff021916908373ffffffffffffffffffffffffffffffffffffffff16021790555082600360006101000a81548173ffffffffffffffffffffffffffffffffffffffff021916908373ffffffffffffffffffffffffffffffffffffffff16021790555081600560006101000a81548173ffffffffffffffffffffffffffffffffffffffff021916908373ffffffffffffffffffffffffffffffffffffffff16021790555080600660006101000a81548173ffffffffffffffffffffffffffffffffffffffff021916908373ffffffffffffffffffffffffffffffffffffffff1602179055505050505050611d92806102056000396000f3fe6080604052600436106100ab5760003560e01c80637ea382c1116100645780637ea382c11461028a5780638da5cb5b146102a1578063a7c6402c146102f8578063c4a859931461034f578063e6f822ab14610366578063e8078d94146103bd576100b2565b806305b38312146100b45780631a6865021461010b5780633c50eec1146101365780634f0e0ef3146101c557806359d0f7131461021c5780637c587b2214610273576100b2565b366100b257005b005b3480156100c057600080fd5b506100c96103d4565b604051808273ffffffffffffffffffffffffffffffffffffffff1673ffffffffffffffffffffffffffffffffffffffff16815260200191505060405180910390f35b34801561011757600080fd5b506101206103fa565b6040518082815260200191505060405180910390f35b34801561014257600080fd5b506101af6004803603606081101561015957600080fd5b81019080803573ffffffffffffffffffffffffffffffffffffffff169060200190929190803573ffffffffffffffffffffffffffffffffffffffff16906020019092919080359060200190929190505050610400565b6040518082815260200191505060405180910390f35b3480156101d157600080fd5b506101da610862565b604051808273ffffffffffffffffffffffffffffffffffffffff1673ffffffffffffffffffffffffffffffffffffffff16815260200191505060405180910390f35b34801561022857600080fd5b50610231610888565b604051808273ffffffffffffffffffffffffffffffffffffffff1673ffffffffffffffffffffffffffffffffffffffff16815260200191505060405180910390f35b34801561027f57600080fd5b506102886108ae565b005b34801561029657600080fd5b5061029f610ec6565b005b3480156102ad57600080fd5b506102b661127e565b604051808273ffffffffffffffffffffffffffffffffffffffff1673ffffffffffffffffffffffffffffffffffffffff16815260200191505060405180910390f35b34801561030457600080fd5b5061030d6112a3565b604051808273ffffffffffffffffffffffffffffffffffffffff1673ffffffffffffffffffffffffffffffffffffffff16815260200191505060405180910390f35b34801561035b57600080fd5b506103646112c9565b005b34801561037257600080fd5b5061037b611877565b604051808273ffffffffffffffffffffffffffffffffffffffff1673ffffffffffffffffffffffffffffffffffffffff16815260200191505060405180910390f35b3480156103c957600080fd5b506103d261189d565b005b600260009054906101000a900473ffffffffffffffffffffffffffffffffffffffff1681565b60045481565b60006060600160009054906101000a900473ffffffffffffffffffffffffffffffffffffffff1673ffffffffffffffffffffffffffffffffffffffff168573ffffffffffffffffffffffffffffffffffffffff1614806104ad5750600160009054906101000a900473ffffffffffffffffffffffffffffffffffffffff1673ffffffffffffffffffffffffffffffffffffffff168473ffffffffffffffffffffffffffffffffffffffff16145b1561057a5760026040519080825280602002602001820160405280156104e25781602001602082028038833980820191505090505b50905084816000815181106104f357fe5b602002602001019073ffffffffffffffffffffffffffffffffffffffff16908173ffffffffffffffffffffffffffffffffffffffff1681525050838160018151811061053b57fe5b602002602001019073ffffffffffffffffffffffffffffffffffffffff16908173ffffffffffffffffffffffffffffffffffffffff16815250506106a8565b60036040519080825280602002602001820160405280156105aa5781602001602082028038833980820191505090505b50905084816000815181106105bb57fe5b602002602001019073ffffffffffffffffffffffffffffffffffffffff16908173ffffffffffffffffffffffffffffffffffffffff1681525050600160009054906101000a900473ffffffffffffffffffffffffffffffffffffffff168160018151811061062557fe5b602002602001019073ffffffffffffffffffffffffffffffffffffffff16908173ffffffffffffffffffffffffffffffffffffffff1681525050838160028151811061066d57fe5b602002602001019073ffffffffffffffffffffffffffffffffffffffff16908173ffffffffffffffffffffffffffffffffffffffff16815250505b6060600560009054906101000a900473ffffffffffffffffffffffffffffffffffffffff1673ffffffffffffffffffffffffffffffffffffffff1663d06ca61f85846040518363ffffffff1660e01b81526004018083815260200180602001828103825283818151815260200191508051906020019060200280838360005b83811015610742578082015181840152602081019050610727565b505050509050019350505050600060405180830381600087803b15801561076857600080fd5b505af115801561077c573d6000803e3d6000fd5b505050506040513d6000823e3d601f19601f8201168201806040525060208110156107a657600080fd5b81019080805160405193929190846401000000008211156107c657600080fd5b838201915060208201858111156107dc57600080fd5b82518660208202830111640100000000821117156107f957600080fd5b8083526020830192505050908051906020019060200280838360005b83811015610830578082015181840152602081019050610815565b5050505090500160405250505090508060018351038151811061084f57fe5b6020026020010151925050509392505050565b600160009054906101000a900473ffffffffffffffffffffffffffffffffffffffff1681565b600660009054906101000a900473ffffffffffffffffffffffffffffffffffffffff1681565b6000600360009054906101000a900473ffffffffffffffffffffffffffffffffffffffff1673ffffffffffffffffffffffffffffffffffffffff166370a08231306040518263ffffffff1660e01b8152600401808273ffffffffffffffffffffffffffffffffffffffff1673ffffffffffffffffffffffffffffffffffffffff16815260200191505060206040518083038186803b15801561094f57600080fd5b505afa158015610963573d6000803e3d6000fd5b505050506040513d602081101561097957600080fd5b8101908080519060200190929190505050905060008111610a02576040517f08c379a000000000000000000000000000000000000000000000000000000000815260040180806020018281038252601f8152602001807f4e6f20746f6b656e20746f207377617020666f722064756d6d79546f6b656e0081525060200191505060405180910390fd5b600060028281610a0e57fe5b0490506000610a62600360009054906101000a900473ffffffffffffffffffffffffffffffffffffffff16600260009054906101000a900473ffffffffffffffffffffffffffffffffffffffff1684610400565b9050600061012c4201905060606003604051908082528060200260200182016040528015610a9f5781602001602082028038833980820191505090505b509050600360009054906101000a900473ffffffffffffffffffffffffffffffffffffffff1681600081518110610ad257fe5b602002602001019073ffffffffffffffffffffffffffffffffffffffff16908173ffffffffffffffffffffffffffffffffffffffff1681525050600160009054906101000a900473ffffffffffffffffffffffffffffffffffffffff1681600181518110610b3c57fe5b602002602001019073ffffffffffffffffffffffffffffffffffffffff16908173ffffffffffffffffffffffffffffffffffffffff1681525050600260009054906101000a900473ffffffffffffffffffffffffffffffffffffffff1681600281518110610ba657fe5b602002602001019073ffffffffffffffffffffffffffffffffffffffff16908173ffffffffffffffffffffffffffffffffffffffff1681525050600360009054906101000a900473ffffffffffffffffffffffffffffffffffffffff1673ffffffffffffffffffffffffffffffffffffffff1663095ea7b3600560009054906101000a900473ffffffffffffffffffffffffffffffffffffffff16866040518363ffffffff1660e01b8152600401808373ffffffffffffffffffffffffffffffffffffffff1673ffffffffffffffffffffffffffffffffffffffff16815260200182815260200192505050602060405180830381600087803b158015610cab57600080fd5b505af1158015610cbf573d6000803e3d6000fd5b505050506040513d6020811015610cd557600080fd5b810190808051906020019092919050505050600560009054906101000a900473ffffffffffffffffffffffffffffffffffffffff1673ffffffffffffffffffffffffffffffffffffffff166338ed173985858430876040518663ffffffff1660e01b815260040180868152602001858152602001806020018473ffffffffffffffffffffffffffffffffffffffff1673ffffffffffffffffffffffffffffffffffffffff168152602001838152602001828103825285818151815260200191508051906020019060200280838360005b83811015610dc0578082015181840152602081019050610da5565b505050509050019650505050505050600060405180830381600087803b158015610de957600080fd5b505af1158015610dfd573d6000803e3d6000fd5b505050506040513d6000823e3d601f19601f820116820180604052506020811015610e2757600080fd5b8101908080516040519392919084640100000000821115610e4757600080fd5b83820191506020820185811115610e5d57600080fd5b8251866020820283011164010000000082111715610e7a57600080fd5b8083526020830192505050908051906020019060200280838360005b83811015610eb1578082015181840152602081019050610e96565b50505050905001604052505050505050505050565b6000600260045481610ed457fe5b049050600061012c420190506000600660009054906101000a900473ffffffffffffffffffffffffffffffffffffffff1673ffffffffffffffffffffffffffffffffffffffff1663e6a43905600360009054906101000a900473ffffffffffffffffffffffffffffffffffffffff16600160009054906101000a900473ffffffffffffffffffffffffffffffffffffffff166040518363ffffffff1660e01b8152600401808373ffffffffffffffffffffffffffffffffffffffff1673ffffffffffffffffffffffffffffffffffffffff1681526020018273ffffffffffffffffffffffffffffffffffffffff1673ffffffffffffffffffffffffffffffffffffffff1681526020019250505060206040518083038186803b158015610ff957600080fd5b505afa15801561100d573d6000803e3d6000fd5b505050506040513d602081101561102357600080fd5b810190808051906020019092919050505090508073ffffffffffffffffffffffffffffffffffffffff1663095ea7b3600560009054906101000a900473ffffffffffffffffffffffffffffffffffffffff16856040518363ffffffff1660e01b8152600401808373ffffffffffffffffffffffffffffffffffffffff1673ffffffffffffffffffffffffffffffffffffffff16815260200182815260200192505050602060405180830381600087803b1580156110df57600080fd5b505af11580156110f3573d6000803e3d6000fd5b505050506040513d602081101561110957600080fd5b810190808051906020019092919050505050600560009054906101000a900473ffffffffffffffffffffffffffffffffffffffff1673ffffffffffffffffffffffffffffffffffffffff166302751cec600360009054906101000a900473ffffffffffffffffffffffffffffffffffffffff168560018030886040518763ffffffff1660e01b8152600401808773ffffffffffffffffffffffffffffffffffffffff1673ffffffffffffffffffffffffffffffffffffffff1681526020018681526020018581526020018481526020018373ffffffffffffffffffffffffffffffffffffffff1673ffffffffffffffffffffffffffffffffffffffff16815260200182815260200196505050505050506040805180830381600087803b15801561123257600080fd5b505af1158015611246573d6000803e3d6000fd5b505050506040513d604081101561125c57600080fd5b8101908080519060200190929190805190602001909291905050505050505050565b6000809054906101000a900473ffffffffffffffffffffffffffffffffffffffff1681565b600560009054906101000a900473ffffffffffffffffffffffffffffffffffffffff1681565b6000600360009054906101000a900473ffffffffffffffffffffffffffffffffffffffff1673ffffffffffffffffffffffffffffffffffffffff166370a08231306040518263ffffffff1660e01b8152600401808273ffffffffffffffffffffffffffffffffffffffff1673ffffffffffffffffffffffffffffffffffffffff16815260200191505060206040518083038186803b15801561136a57600080fd5b505afa15801561137e573d6000803e3d6000fd5b505050506040513d602081101561139457600080fd5b810190808051906020019092919050505090506000811161141d576040517f08c379a000000000000000000000000000000000000000000000000000000000815260040180806020018281038252601a8152602001807f4e6f20746f6b656e20746f207377617020666f7220657468657200000000000081525060200191505060405180910390fd5b60006002828161142957fe5b049050600061147d600360009054906101000a900473ffffffffffffffffffffffffffffffffffffffff16600160009054906101000a900473ffffffffffffffffffffffffffffffffffffffff1684610400565b9050600061012c42019050606060026040519080825280602002602001820160405280156114ba5781602001602082028038833980820191505090505b509050600360009054906101000a900473ffffffffffffffffffffffffffffffffffffffff16816000815181106114ed57fe5b602002602001019073ffffffffffffffffffffffffffffffffffffffff16908173ffffffffffffffffffffffffffffffffffffffff1681525050600160009054906101000a900473ffffffffffffffffffffffffffffffffffffffff168160018151811061155757fe5b602002602001019073ffffffffffffffffffffffffffffffffffffffff16908173ffffffffffffffffffffffffffffffffffffffff1681525050600360009054906101000a900473ffffffffffffffffffffffffffffffffffffffff1673ffffffffffffffffffffffffffffffffffffffff1663095ea7b3600560009054906101000a900473ffffffffffffffffffffffffffffffffffffffff16866040518363ffffffff1660e01b8152600401808373ffffffffffffffffffffffffffffffffffffffff1673ffffffffffffffffffffffffffffffffffffffff16815260200182815260200192505050602060405180830381600087803b15801561165c57600080fd5b505af1158015611670573d6000803e3d6000fd5b505050506040513d602081101561168657600080fd5b810190808051906020019092919050505050600560009054906101000a900473ffffffffffffffffffffffffffffffffffffffff1673ffffffffffffffffffffffffffffffffffffffff166318cbafe585858430876040518663ffffffff1660e01b815260040180868152602001858152602001806020018473ffffffffffffffffffffffffffffffffffffffff1673ffffffffffffffffffffffffffffffffffffffff168152602001838152602001828103825285818151815260200191508051906020019060200280838360005b83811015611771578082015181840152602081019050611756565b505050509050019650505050505050600060405180830381600087803b15801561179a57600080fd5b505af11580156117ae573d6000803e3d6000fd5b505050506040513d6000823e3d601f19601f8201168201806040525060208110156117d857600080fd5b81019080805160405193929190846401000000008211156117f857600080fd5b8382019150602082018581111561180e57600080fd5b825186602082028301116401000000008211171561182b57600080fd5b8083526020830192505050908051906020019060200280838360005b83811015611862578082015181840152602081019050611847565b50505050905001604052505050505050505050565b600360009054906101000a900473ffffffffffffffffffffffffffffffffffffffff1681565b6000600360009054906101000a900473ffffffffffffffffffffffffffffffffffffffff1673ffffffffffffffffffffffffffffffffffffffff166370a08231306040518263ffffffff1660e01b8152600401808273ffffffffffffffffffffffffffffffffffffffff1673ffffffffffffffffffffffffffffffffffffffff16815260200191505060206040518083038186803b15801561193e57600080fd5b505afa158015611952573d6000803e3d6000fd5b505050506040513d602081101561196857600080fd5b81019080805190602001909291905050509050600081116119f1576040517f08c379a00000000000000000000000000000000000000000000000000000000081526004018080602001828103825260088152602001807f4e6f20746f6b656e00000000000000000000000000000000000000000000000081525060200191505060405180910390fd5b60004711611a67576040517f08c379a00000000000000000000000000000000000000000000000000000000081526004018080602001828103825260108152602001807f4e6f7420656e6f7567682045746865720000000000000000000000000000000081525060200191505060405180910390fd5b600060028281611a7357fe5b0490506000600190506000611acd600360009054906101000a900473ffffffffffffffffffffffffffffffffffffffff16600160009054906101000a900473ffffffffffffffffffffffffffffffffffffffff1685610400565b9050600061012c42019050600360009054906101000a900473ffffffffffffffffffffffffffffffffffffffff1673ffffffffffffffffffffffffffffffffffffffff1663095ea7b3600560009054906101000a900473ffffffffffffffffffffffffffffffffffffffff16866040518363ffffffff1660e01b8152600401808373ffffffffffffffffffffffffffffffffffffffff1673ffffffffffffffffffffffffffffffffffffffff16815260200182815260200192505050602060405180830381600087803b158015611ba357600080fd5b505af1158015611bb7573d6000803e3d6000fd5b505050506040513d6020811015611bcd57600080fd5b810190808051906020019092919050505050600560009054906101000a900473ffffffffffffffffffffffffffffffffffffffff1673ffffffffffffffffffffffffffffffffffffffff1663f305d71983600360009054906101000a900473ffffffffffffffffffffffffffffffffffffffff1687878730886040518863ffffffff1660e01b8152600401808773ffffffffffffffffffffffffffffffffffffffff1673ffffffffffffffffffffffffffffffffffffffff1681526020018681526020018581526020018481526020018373ffffffffffffffffffffffffffffffffffffffff1673ffffffffffffffffffffffffffffffffffffffff16815260200182815260200196505050505050506060604051808303818588803b158015611cf657600080fd5b505af1158015611d0a573d6000803e3d6000fd5b50505050506040513d6060811015611d2157600080fd5b81019080805190602001909291908051906020019092919080519060200190929190505050909150905060046000829190505550505050505056fea264697066735822122044cb67b4335c38a13da05a1491047d5e214b734f5070b4925a465b350b35ab4364736f6c63430006020033",
  "source": "pragma solidity >=0.6.0;\r\n\r\nimport \"@openzeppelin/contracts/token/ERC20/IERC20.sol\";\r\nimport \"./utils/IUniswapV2Router02.sol\";\r\nimport \"./utils/IUniswapV2Factory.sol\";\r\n\r\ncontract ExerciceSolution {\r\n\r\n    address public owner;\r\n    address public wethAddress;\r\n    address public dummyAddress;\r\n    address public myTokenAddress;\r\n\r\n    uint public liquidity;\r\n    \r\n    IUniswapV2Router02 public uniswapV2Router02;\r\n    IUniswapV2Factory public uniswapV2Factory;\r\n    \r\n    constructor(address _wethAddress, address _dummyAddress, address _myTokenAddress, IUniswapV2Router02 _uniswapV2Router02Address, IUniswapV2Factory _uniswapV2Factory) public {\r\n        owner = msg.sender;\r\n        wethAddress = _wethAddress;\r\n        dummyAddress = _dummyAddress;\r\n        myTokenAddress = _myTokenAddress;\r\n        uniswapV2Router02 = IUniswapV2Router02(_uniswapV2Router02Address);\r\n        uniswapV2Factory = IUniswapV2Factory(_uniswapV2Factory);\r\n\t}\r\n\r\n    fallback () external payable \r\n\t{}\r\n\r\n\treceive () external payable \r\n\t{}\r\n\r\n\r\n    function swapYourTokenForEth() public {\r\n        uint myTokenAmount = IERC20(myTokenAddress).balanceOf(address(this));\r\n        require(myTokenAmount > 0, \"No token to swap for ether\");\r\n\r\n        uint amountIn = myTokenAmount / 2;\r\n        // uint amountOutMin = 1; // I guess you should never do that\r\n        uint amountOutMin = getAmountOutMin(myTokenAddress, wethAddress, amountIn);\r\n        uint deadline = block.timestamp + 300;\r\n        address[] memory path = new address[](2);\r\n        path[0] = myTokenAddress;\r\n        path[1] = wethAddress;\r\n        \r\n        IERC20(myTokenAddress).approve(address(uniswapV2Router02), amountIn);\r\n\r\n        uniswapV2Router02.swapExactTokensForETH(amountIn, amountOutMin, path, address(this), deadline);\r\n    }\r\n\r\n    // /*\r\n    function swapYourTokenForDummyToken() public {\r\n        uint myTokenAmount = IERC20(myTokenAddress).balanceOf(address(this));\r\n        require(myTokenAmount > 0, \"No token to swap for dummyToken\");\r\n\r\n        uint amountIn = myTokenAmount / 2;\r\n        // uint amountOutMin = 1; // I guess you should never do that\r\n        uint amountOutMin = getAmountOutMin(myTokenAddress, dummyAddress, amountIn);\r\n        uint deadline = block.timestamp + 300;\r\n        address[] memory path = new address[](3);\r\n        path[0] = myTokenAddress;\r\n        path[1] = wethAddress;\r\n        path[2] = dummyAddress;\r\n        \r\n        IERC20(myTokenAddress).approve(address(uniswapV2Router02), amountIn);\r\n\r\n        uniswapV2Router02.swapExactTokensForTokens(amountIn, amountOutMin, path, address(this), deadline);\r\n    }\r\n    // */\r\n\r\n    function addLiquidity() public {\r\n        uint myTokenAmount = IERC20(myTokenAddress).balanceOf(address(this));\r\n        require(myTokenAmount > 0, \"No token\");\r\n        require(address(this).balance > 0, \"Not enough Ether\");\r\n\r\n        uint amountTokenDesired = myTokenAmount / 2;\r\n        uint amountTokenMin = 1;\r\n        // uint amountETHMin = 1;\r\n        uint amountETHMin = getAmountOutMin(myTokenAddress, wethAddress, amountTokenDesired);\r\n        uint deadline = block.timestamp + 300;\r\n\r\n        IERC20(myTokenAddress).approve(address(uniswapV2Router02), amountTokenDesired);\r\n\r\n        (, , liquidity) = uniswapV2Router02.addLiquidityETH{ value: amountETHMin }(myTokenAddress, amountTokenDesired, amountTokenMin, amountETHMin, address(this), deadline);\r\n    }\r\n\r\n    function withdrawLiquidity() public {\r\n        uint liquidityToRemove = liquidity / 2;\r\n        uint deadline = block.timestamp + 300;\r\n\r\n        address myTokenAndWethPairAddress = uniswapV2Factory.getPair(myTokenAddress, wethAddress);\r\n        IERC20(myTokenAndWethPairAddress).approve(address(uniswapV2Router02), liquidityToRemove);\r\n\r\n        uniswapV2Router02.removeLiquidityETH(myTokenAddress, liquidityToRemove, 1, 1, address(this), deadline);\r\n    }\r\n    \r\n\r\n    // Reliable ?\r\n    function getAmountOutMin(address _tokenIn, address _tokenOut, uint256 _amountIn) public returns (uint256) {\r\n\r\n       //path is an array of addresses.\r\n       //this path array will have 3 addresses [tokenIn, WETH, tokenOut]\r\n       //the if statement below takes into account if token in or token out is WETH.  then the path is only 2 addresses\r\n        address[] memory path;\r\n        if (_tokenIn == wethAddress || _tokenOut == wethAddress) {\r\n            path = new address[](2);\r\n            path[0] = _tokenIn;\r\n            path[1] = _tokenOut;\r\n        } else {\r\n            path = new address[](3);\r\n            path[0] = _tokenIn;\r\n            path[1] = wethAddress;\r\n            path[2] = _tokenOut;\r\n        }\r\n        \r\n        uint256[] memory amountOutMins = uniswapV2Router02.getAmountsOut(_amountIn, path);\r\n        return amountOutMins[path.length -1];  \r\n    }\r\n\t\r\n}",
  "sourcePath": "C:\\Users\\laith\\OneDrive\\Bureau\\Informatique\\GitHub\\_SHARED\\amm-101\\contracts\\ExerciceSolution.sol",
  "compiler": {
    "name": "solc",
    "version": "0.6.2+commit.bacdbe57.Emscripten.clang"
  },
  "schemaVersion": "3.4.3",
  "updatedAt": "2021-12-07T15:37:27.899Z",
  "devdoc": {
    "methods": {}
  },
  "userdoc": {
    "methods": {}
  }
}